{
  "_format": "hh-sol-artifact-1",
  "contractName": "Test",
  "sourceName": "contracts/Test.sol",
  "abi": [
    {
      "inputs": [
        {
          "internalType": "address payable",
          "name": "_owner",
          "type": "address"
        }
      ],
      "stateMutability": "nonpayable",
      "type": "constructor"
    },
    {
      "inputs": [],
      "name": "claimOwnershipReward",
      "outputs": [],
      "stateMutability": "nonpayable",
      "type": "function"
    },
    {
      "inputs": [],
      "name": "owner",
      "outputs": [
        {
          "internalType": "address payable",
          "name": "",
          "type": "address"
        }
      ],
      "stateMutability": "view",
      "type": "function"
    },
    {
      "inputs": [
        {
          "internalType": "address payable",
          "name": "_newOwner",
          "type": "address"
        }
      ],
      "name": "renounceOwnership",
      "outputs": [],
      "stateMutability": "payable",
      "type": "function"
    }
  ],
  "bytecode": "0x608060405234801561001057600080fd5b506040516106893803806106898339818101604052810190610032919061008d565b806000806101000a81548173ffffffffffffffffffffffffffffffffffffffff021916908373ffffffffffffffffffffffffffffffffffffffff160217905550506100ff565b600081519050610087816100e8565b92915050565b60006020828403121561009f57600080fd5b60006100ad84828501610078565b91505092915050565b60006100c1826100c8565b9050919050565b600073ffffffffffffffffffffffffffffffffffffffff82169050919050565b6100f1816100b6565b81146100fc57600080fd5b50565b61057b8061010e6000396000f3fe6080604052600436106100345760003560e01c806338bf3cfa146100395780638da5cb5b14610055578063fd963bc614610080575b600080fd5b610053600480360381019061004e919061032c565b610097565b005b34801561006157600080fd5b5061006a6101b3565b6040516100779190610470565b60405180910390f35b34801561008c57600080fd5b506100956101d7565b005b60008054906101000a900473ffffffffffffffffffffffffffffffffffffffff1673ffffffffffffffffffffffffffffffffffffffff163373ffffffffffffffffffffffffffffffffffffffff1614610125576040517f08c379a000000000000000000000000000000000000000000000000000000000815260040161011c906104cb565b60405180910390fd5b670de0b6b3a7640000341015610170576040517f08c379a0000000000000000000000000000000000000000000000000000000008152600401610167906104ab565b60405180910390fd5b806000806101000a81548173ffffffffffffffffffffffffffffffffffffffff021916908373ffffffffffffffffffffffffffffffffffffffff16021790555050565b60008054906101000a900473ffffffffffffffffffffffffffffffffffffffff1681565b60008054906101000a900473ffffffffffffffffffffffffffffffffffffffff1673ffffffffffffffffffffffffffffffffffffffff163373ffffffffffffffffffffffffffffffffffffffff1614610265576040517f08c379a000000000000000000000000000000000000000000000000000000000815260040161025c906104cb565b60405180910390fd5b6000479050600081116102ad576040517f08c379a00000000000000000000000000000000000000000000000000000000081526004016102a49061048b565b60405180910390fd5b60008054906101000a900473ffffffffffffffffffffffffffffffffffffffff1673ffffffffffffffffffffffffffffffffffffffff166108fc829081150290604051600060405180830381858888f19350505050158015610313573d6000803e3d6000fd5b5050565b6000813590506103268161052e565b92915050565b60006020828403121561033e57600080fd5b600061034c84828501610317565b91505092915050565b61035e816104fc565b82525050565b60006103716016836104eb565b91507f5265776172647320616c726561647920526561706564000000000000000000006000830152602082019050919050565b60006103b16025836104eb565b91507f4e6f7420656e6f7567682066756e6420746f2072656e6f756e6365206f776e6560008301527f72736869700000000000000000000000000000000000000000000000000000006020830152604082019050919050565b60006104176021836104eb565b91507f43276d6d6f6e206d616e2120596f7520617265206e6f7420746865206f776e6560008301527f72000000000000000000000000000000000000000000000000000000000000006020830152604082019050919050565b60006020820190506104856000830184610355565b92915050565b600060208201905081810360008301526104a481610364565b9050919050565b600060208201905081810360008301526104c4816103a4565b9050919050565b600060208201905081810360008301526104e48161040a565b9050919050565b600082825260208201905092915050565b60006105078261050e565b9050919050565b600073ffffffffffffffffffffffffffffffffffffffff82169050919050565b610537816104fc565b811461054257600080fd5b5056fea2646970667358221220a3f0760943f3a41d0753a78f36a4c1926f6fc7af3cbb74df6462a2eb96d5be2b64736f6c63430008000033",
  "linkReferences": {},
  "deployedLinkReferences": {}
}